{
  "contractName": "MimiToken",
  "abi": [
    {
      "inputs": [],
      "stateMutability": "nonpayable",
      "type": "constructor"
    },
    {
      "anonymous": false,
      "inputs": [
        {
          "indexed": true,
          "internalType": "address",
          "name": "owner",
          "type": "address"
        },
        {
          "indexed": true,
          "internalType": "address",
          "name": "spender",
          "type": "address"
        },
        {
          "indexed": false,
          "internalType": "uint256",
          "name": "value",
          "type": "uint256"
        }
      ],
      "name": "Approval",
      "type": "event"
    },
    {
      "anonymous": false,
      "inputs": [
        {
          "indexed": true,
          "internalType": "address",
          "name": "previousOwner",
          "type": "address"
        },
        {
          "indexed": true,
          "internalType": "address",
          "name": "newOwner",
          "type": "address"
        }
      ],
      "name": "OwnershipTransferred",
      "type": "event"
    },
    {
      "anonymous": false,
      "inputs": [
        {
          "indexed": false,
          "internalType": "address",
          "name": "account",
          "type": "address"
        }
      ],
      "name": "Paused",
      "type": "event"
    },
    {
      "anonymous": false,
      "inputs": [
        {
          "indexed": true,
          "internalType": "address",
          "name": "from",
          "type": "address"
        },
        {
          "indexed": true,
          "internalType": "address",
          "name": "to",
          "type": "address"
        },
        {
          "indexed": false,
          "internalType": "uint256",
          "name": "value",
          "type": "uint256"
        }
      ],
      "name": "Transfer",
      "type": "event"
    },
    {
      "anonymous": false,
      "inputs": [
        {
          "indexed": false,
          "internalType": "address",
          "name": "account",
          "type": "address"
        }
      ],
      "name": "Unpaused",
      "type": "event"
    },
    {
      "inputs": [],
      "name": "_name",
      "outputs": [
        {
          "internalType": "string",
          "name": "",
          "type": "string"
        }
      ],
      "stateMutability": "view",
      "type": "function",
      "constant": true
    },
    {
      "inputs": [],
      "name": "_symbol",
      "outputs": [
        {
          "internalType": "string",
          "name": "",
          "type": "string"
        }
      ],
      "stateMutability": "view",
      "type": "function",
      "constant": true
    },
    {
      "inputs": [],
      "name": "_totalSupply",
      "outputs": [
        {
          "internalType": "uint256",
          "name": "",
          "type": "uint256"
        }
      ],
      "stateMutability": "view",
      "type": "function",
      "constant": true
    },
    {
      "inputs": [
        {
          "internalType": "address",
          "name": "owner",
          "type": "address"
        },
        {
          "internalType": "address",
          "name": "spender",
          "type": "address"
        }
      ],
      "name": "allowance",
      "outputs": [
        {
          "internalType": "uint256",
          "name": "",
          "type": "uint256"
        }
      ],
      "stateMutability": "view",
      "type": "function",
      "constant": true
    },
    {
      "inputs": [
        {
          "internalType": "address",
          "name": "spender",
          "type": "address"
        },
        {
          "internalType": "uint256",
          "name": "amount",
          "type": "uint256"
        }
      ],
      "name": "approve",
      "outputs": [
        {
          "internalType": "bool",
          "name": "",
          "type": "bool"
        }
      ],
      "stateMutability": "nonpayable",
      "type": "function"
    },
    {
      "inputs": [
        {
          "internalType": "address",
          "name": "account",
          "type": "address"
        }
      ],
      "name": "balanceOf",
      "outputs": [
        {
          "internalType": "uint256",
          "name": "",
          "type": "uint256"
        }
      ],
      "stateMutability": "view",
      "type": "function",
      "constant": true
    },
    {
      "inputs": [],
      "name": "decimals",
      "outputs": [
        {
          "internalType": "uint8",
          "name": "",
          "type": "uint8"
        }
      ],
      "stateMutability": "view",
      "type": "function",
      "constant": true
    },
    {
      "inputs": [
        {
          "internalType": "address",
          "name": "spender",
          "type": "address"
        },
        {
          "internalType": "uint256",
          "name": "subtractedValue",
          "type": "uint256"
        }
      ],
      "name": "decreaseAllowance",
      "outputs": [
        {
          "internalType": "bool",
          "name": "",
          "type": "bool"
        }
      ],
      "stateMutability": "nonpayable",
      "type": "function"
    },
    {
      "inputs": [
        {
          "internalType": "address",
          "name": "spender",
          "type": "address"
        },
        {
          "internalType": "uint256",
          "name": "addedValue",
          "type": "uint256"
        }
      ],
      "name": "increaseAllowance",
      "outputs": [
        {
          "internalType": "bool",
          "name": "",
          "type": "bool"
        }
      ],
      "stateMutability": "nonpayable",
      "type": "function"
    },
    {
      "inputs": [],
      "name": "name",
      "outputs": [
        {
          "internalType": "string",
          "name": "",
          "type": "string"
        }
      ],
      "stateMutability": "view",
      "type": "function",
      "constant": true
    },
    {
      "inputs": [],
      "name": "owner",
      "outputs": [
        {
          "internalType": "address",
          "name": "",
          "type": "address"
        }
      ],
      "stateMutability": "view",
      "type": "function",
      "constant": true
    },
    {
      "inputs": [],
      "name": "paused",
      "outputs": [
        {
          "internalType": "bool",
          "name": "",
          "type": "bool"
        }
      ],
      "stateMutability": "view",
      "type": "function",
      "constant": true
    },
    {
      "inputs": [],
      "name": "renounceOwnership",
      "outputs": [],
      "stateMutability": "nonpayable",
      "type": "function"
    },
    {
      "inputs": [],
      "name": "symbol",
      "outputs": [
        {
          "internalType": "string",
          "name": "",
          "type": "string"
        }
      ],
      "stateMutability": "view",
      "type": "function",
      "constant": true
    },
    {
      "inputs": [],
      "name": "totalSupply",
      "outputs": [
        {
          "internalType": "uint256",
          "name": "",
          "type": "uint256"
        }
      ],
      "stateMutability": "view",
      "type": "function",
      "constant": true
    },
    {
      "inputs": [
        {
          "internalType": "address",
          "name": "to",
          "type": "address"
        },
        {
          "internalType": "uint256",
          "name": "amount",
          "type": "uint256"
        }
      ],
      "name": "transfer",
      "outputs": [
        {
          "internalType": "bool",
          "name": "",
          "type": "bool"
        }
      ],
      "stateMutability": "nonpayable",
      "type": "function"
    },
    {
      "inputs": [
        {
          "internalType": "address",
          "name": "from",
          "type": "address"
        },
        {
          "internalType": "address",
          "name": "to",
          "type": "address"
        },
        {
          "internalType": "uint256",
          "name": "amount",
          "type": "uint256"
        }
      ],
      "name": "transferFrom",
      "outputs": [
        {
          "internalType": "bool",
          "name": "",
          "type": "bool"
        }
      ],
      "stateMutability": "nonpayable",
      "type": "function"
    },
    {
      "inputs": [
        {
          "internalType": "address",
          "name": "newOwner",
          "type": "address"
        }
      ],
      "name": "transferOwnership",
      "outputs": [],
      "stateMutability": "nonpayable",
      "type": "function"
    },
    {
      "inputs": [],
      "name": "pause",
      "outputs": [],
      "stateMutability": "nonpayable",
      "type": "function"
    },
    {
      "inputs": [],
      "name": "unpause",
      "outputs": [],
      "stateMutability": "nonpayable",
      "type": "function"
    }
  ],
  "bytecode": "0x60806040526040518060400160405280600a81526020017f4d494d4920544f4b454e00000000000000000000000000000000000000000000815250600690805190602001906200005192919062000538565b506040518060400160405280600481526020017f4d494d4900000000000000000000000000000000000000000000000000000000815250600790805190602001906200009f92919062000538565b50620000b0620002de60201b60201c565b60ff16600a620000c1919062000728565b6103e8620000d0919062000865565b6008556040518060400160405280600c81526020017f68656c6c6f20776f726c64210000000000000000000000000000000000000000815250600990805190602001906200012092919062000538565b503480156200012e57600080fd5b50600680546200013e90620008d0565b80601f01602080910402602001604051908101604052809291908181526020018280546200016c90620008d0565b8015620001bd5780601f106200019157610100808354040283529160200191620001bd565b820191906000526020600020905b8154815290600101906020018083116200019f57829003601f168201915b505050505060078054620001d190620008d0565b80601f0160208091040260200160405190810160405280929190818152602001828054620001ff90620008d0565b8015620002505780601f10620002245761010080835404028352916020019162000250565b820191906000526020600020905b8154815290600101906020018083116200023257829003601f168201915b505050505081600390805190602001906200026d92919062000538565b5080600490805190602001906200028692919062000538565b505050620002a96200029d620002e760201b60201c565b620002ef60201b60201c565b6000600560146101000a81548160ff021916908315150217905550620002d833600854620003b560201b60201c565b6200099a565b60006012905090565b600033905090565b6000600560009054906101000a900473ffffffffffffffffffffffffffffffffffffffff16905081600560006101000a81548173ffffffffffffffffffffffffffffffffffffffff021916908373ffffffffffffffffffffffffffffffffffffffff1602179055508173ffffffffffffffffffffffffffffffffffffffff168173ffffffffffffffffffffffffffffffffffffffff167f8be0079c531659141344cd1fd0a4f28419497f9722a3daafe3b4186f6b6457e060405160405180910390a35050565b600073ffffffffffffffffffffffffffffffffffffffff168273ffffffffffffffffffffffffffffffffffffffff16141562000428576040517f08c379a00000000000000000000000000000000000000000000000000000000081526004016200041f9062000620565b60405180910390fd5b6200043c600083836200052e60201b60201c565b806002600082825462000450919062000670565b92505081905550806000808473ffffffffffffffffffffffffffffffffffffffff1673ffffffffffffffffffffffffffffffffffffffff1681526020019081526020016000206000828254620004a7919062000670565b925050819055508173ffffffffffffffffffffffffffffffffffffffff16600073ffffffffffffffffffffffffffffffffffffffff167fddf252ad1be2c89b69c2b068fc378daa952ba7f163c4a11628f55a4df523b3ef836040516200050e919062000642565b60405180910390a36200052a600083836200053360201b60201c565b5050565b505050565b505050565b8280546200054690620008d0565b90600052602060002090601f0160209004810192826200056a5760008555620005b6565b82601f106200058557805160ff1916838001178555620005b6565b82800160010185558215620005b6579182015b82811115620005b557825182559160200191906001019062000598565b5b509050620005c59190620005c9565b5090565b5b80821115620005e4576000816000905550600101620005ca565b5090565b6000620005f7601f836200065f565b9150620006048262000971565b602082019050919050565b6200061a81620008c6565b82525050565b600060208201905081810360008301526200063b81620005e8565b9050919050565b60006020820190506200065960008301846200060f565b92915050565b600082825260208201905092915050565b60006200067d82620008c6565b91506200068a83620008c6565b9250827fffffffffffffffffffffffffffffffffffffffffffffffffffffffffffffffff03821115620006c257620006c162000906565b5b828201905092915050565b6000808291508390505b60018511156200071f57808604811115620006f757620006f662000906565b5b6001851615620007075780820291505b8081029050620007178562000964565b9450620006d7565b94509492505050565b60006200073582620008c6565b91506200074283620008c6565b9250620007717fffffffffffffffffffffffffffffffffffffffffffffffffffffffffffffffff848462000779565b905092915050565b6000826200078b57600190506200085e565b816200079b57600090506200085e565b8160018114620007b45760028114620007bf57620007f5565b60019150506200085e565b60ff841115620007d457620007d362000906565b5b8360020a915084821115620007ee57620007ed62000906565b5b506200085e565b5060208310610133831016604e8410600b84101617156200082f5782820a90508381111562000829576200082862000906565b5b6200085e565b6200083e8484846001620006cd565b9250905081840481111562000858576200085762000906565b5b81810290505b9392505050565b60006200087282620008c6565b91506200087f83620008c6565b9250817fffffffffffffffffffffffffffffffffffffffffffffffffffffffffffffffff0483118215151615620008bb57620008ba62000906565b5b828202905092915050565b6000819050919050565b60006002820490506001821680620008e957607f821691505b602082108114156200090057620008ff62000935565b5b50919050565b7f4e487b7100000000000000000000000000000000000000000000000000000000600052601160045260246000fd5b7f4e487b7100000000000000000000000000000000000000000000000000000000600052602260045260246000fd5b60008160011c9050919050565b7f45524332303a206d696e7420746f20746865207a65726f206164647265737300600082015250565b611c8680620009aa6000396000f3fe608060405234801561001057600080fd5b506004361061012c5760003560e01c8063715018a6116100ad578063a9059cbb11610071578063a9059cbb14610311578063b09f126614610341578063d28d88521461035f578063dd62ed3e1461037d578063f2fde38b146103ad5761012c565b8063715018a6146102915780638456cb591461029b5780638da5cb5b146102a557806395d89b41146102c3578063a457c2d7146102e15761012c565b806339509351116100f457806339509351146101eb5780633eaaf86b1461021b5780633f4ba83a146102395780635c975abb1461024357806370a08231146102615761012c565b806306fdde0314610131578063095ea7b31461014f57806318160ddd1461017f57806323b872dd1461019d578063313ce567146101cd575b600080fd5b6101396103c9565b6040516101469190611602565b60405180910390f35b6101696004803603810190610164919061139a565b61045b565b60405161017691906115e7565b60405180910390f35b61018761047e565b6040516101949190611784565b60405180910390f35b6101b760048036038101906101b2919061134b565b610488565b6040516101c491906115e7565b60405180910390f35b6101d56104b7565b6040516101e2919061179f565b60405180910390f35b6102056004803603810190610200919061139a565b6104c0565b60405161021291906115e7565b60405180910390f35b61022361056a565b6040516102309190611784565b60405180910390f35b610241610570565b005b61024b6105f6565b60405161025891906115e7565b60405180910390f35b61027b600480360381019061027691906112e6565b61060d565b6040516102889190611784565b60405180910390f35b610299610655565b005b6102a36106dd565b005b6102ad610763565b6040516102ba91906115cc565b60405180910390f35b6102cb61078d565b6040516102d89190611602565b60405180910390f35b6102fb60048036038101906102f6919061139a565b61081f565b60405161030891906115e7565b60405180910390f35b61032b6004803603810190610326919061139a565b610909565b60405161033891906115e7565b60405180910390f35b61034961092c565b6040516103569190611602565b60405180910390f35b6103676109ba565b6040516103749190611602565b60405180910390f35b6103976004803603810190610392919061130f565b610a48565b6040516103a49190611784565b60405180910390f35b6103c760048036038101906103c291906112e6565b610acf565b005b6060600380546103d8906118b4565b80601f0160208091040260200160405190810160405280929190818152602001828054610404906118b4565b80156104515780601f1061042657610100808354040283529160200191610451565b820191906000526020600020905b81548152906001019060200180831161043457829003601f168201915b5050505050905090565b600080610466610bc7565b9050610473818585610bcf565b600191505092915050565b6000600254905090565b600080610493610bc7565b90506104a0858285610d9a565b6104ab858585610e26565b60019150509392505050565b60006012905090565b6000806104cb610bc7565b905061055f818585600160008673ffffffffffffffffffffffffffffffffffffffff1673ffffffffffffffffffffffffffffffffffffffff16815260200190815260200160002060008973ffffffffffffffffffffffffffffffffffffffff1673ffffffffffffffffffffffffffffffffffffffff1681526020019081526020016000205461055a91906117d6565b610bcf565b600191505092915050565b60085481565b610578610bc7565b73ffffffffffffffffffffffffffffffffffffffff16610596610763565b73ffffffffffffffffffffffffffffffffffffffff16146105ec576040517f08c379a00000000000000000000000000000000000000000000000000000000081526004016105e390611704565b60405180910390fd5b6105f46110a7565b565b6000600560149054906101000a900460ff16905090565b60008060008373ffffffffffffffffffffffffffffffffffffffff1673ffffffffffffffffffffffffffffffffffffffff168152602001908152602001600020549050919050565b61065d610bc7565b73ffffffffffffffffffffffffffffffffffffffff1661067b610763565b73ffffffffffffffffffffffffffffffffffffffff16146106d1576040517f08c379a00000000000000000000000000000000000000000000000000000000081526004016106c890611704565b60405180910390fd5b6106db6000611149565b565b6106e5610bc7565b73ffffffffffffffffffffffffffffffffffffffff16610703610763565b73ffffffffffffffffffffffffffffffffffffffff1614610759576040517f08c379a000000000000000000000000000000000000000000000000000000000815260040161075090611704565b60405180910390fd5b61076161120f565b565b6000600560009054906101000a900473ffffffffffffffffffffffffffffffffffffffff16905090565b60606004805461079c906118b4565b80601f01602080910402602001604051908101604052809291908181526020018280546107c8906118b4565b80156108155780601f106107ea57610100808354040283529160200191610815565b820191906000526020600020905b8154815290600101906020018083116107f857829003601f168201915b5050505050905090565b60008061082a610bc7565b90506000600160008373ffffffffffffffffffffffffffffffffffffffff1673ffffffffffffffffffffffffffffffffffffffff16815260200190815260200160002060008673ffffffffffffffffffffffffffffffffffffffff1673ffffffffffffffffffffffffffffffffffffffff168152602001908152602001600020549050838110156108f0576040517f08c379a00000000000000000000000000000000000000000000000000000000081526004016108e790611764565b60405180910390fd5b6108fd8286868403610bcf565b60019250505092915050565b600080610914610bc7565b9050610921818585610e26565b600191505092915050565b60078054610939906118b4565b80601f0160208091040260200160405190810160405280929190818152602001828054610965906118b4565b80156109b25780601f10610987576101008083540402835291602001916109b2565b820191906000526020600020905b81548152906001019060200180831161099557829003601f168201915b505050505081565b600680546109c7906118b4565b80601f01602080910402602001604051908101604052809291908181526020018280546109f3906118b4565b8015610a405780601f10610a1557610100808354040283529160200191610a40565b820191906000526020600020905b815481529060010190602001808311610a2357829003601f168201915b505050505081565b6000600160008473ffffffffffffffffffffffffffffffffffffffff1673ffffffffffffffffffffffffffffffffffffffff16815260200190815260200160002060008373ffffffffffffffffffffffffffffffffffffffff1673ffffffffffffffffffffffffffffffffffffffff16815260200190815260200160002054905092915050565b610ad7610bc7565b73ffffffffffffffffffffffffffffffffffffffff16610af5610763565b73ffffffffffffffffffffffffffffffffffffffff1614610b4b576040517f08c379a0000000000000000000000000000000000000000000000000000000008152600401610b4290611704565b60405180910390fd5b600073ffffffffffffffffffffffffffffffffffffffff168173ffffffffffffffffffffffffffffffffffffffff161415610bbb576040517f08c379a0000000000000000000000000000000000000000000000000000000008152600401610bb290611664565b60405180910390fd5b610bc481611149565b50565b600033905090565b600073ffffffffffffffffffffffffffffffffffffffff168373ffffffffffffffffffffffffffffffffffffffff161415610c3f576040517f08c379a0000000000000000000000000000000000000000000000000000000008152600401610c3690611744565b60405180910390fd5b600073ffffffffffffffffffffffffffffffffffffffff168273ffffffffffffffffffffffffffffffffffffffff161415610caf576040517f08c379a0000000000000000000000000000000000000000000000000000000008152600401610ca690611684565b60405180910390fd5b80600160008573ffffffffffffffffffffffffffffffffffffffff1673ffffffffffffffffffffffffffffffffffffffff16815260200190815260200160002060008473ffffffffffffffffffffffffffffffffffffffff1673ffffffffffffffffffffffffffffffffffffffff168152602001908152602001600020819055508173ffffffffffffffffffffffffffffffffffffffff168373ffffffffffffffffffffffffffffffffffffffff167f8c5be1e5ebec7d5bd14f71427d1e84f3dd0314c0f7b2291e5b200ac8c7c3b92583604051610d8d9190611784565b60405180910390a3505050565b6000610da68484610a48565b90507fffffffffffffffffffffffffffffffffffffffffffffffffffffffffffffffff8114610e205781811015610e12576040517f08c379a0000000000000000000000000000000000000000000000000000000008152600401610e09906116a4565b60405180910390fd5b610e1f8484848403610bcf565b5b50505050565b600073ffffffffffffffffffffffffffffffffffffffff168373ffffffffffffffffffffffffffffffffffffffff161415610e96576040517f08c379a0000000000000000000000000000000000000000000000000000000008152600401610e8d90611724565b60405180910390fd5b600073ffffffffffffffffffffffffffffffffffffffff168273ffffffffffffffffffffffffffffffffffffffff161415610f06576040517f08c379a0000000000000000000000000000000000000000000000000000000008152600401610efd90611624565b60405180910390fd5b610f118383836112b2565b60008060008573ffffffffffffffffffffffffffffffffffffffff1673ffffffffffffffffffffffffffffffffffffffff16815260200190815260200160002054905081811015610f97576040517f08c379a0000000000000000000000000000000000000000000000000000000008152600401610f8e906116c4565b60405180910390fd5b8181036000808673ffffffffffffffffffffffffffffffffffffffff1673ffffffffffffffffffffffffffffffffffffffff16815260200190815260200160002081905550816000808573ffffffffffffffffffffffffffffffffffffffff1673ffffffffffffffffffffffffffffffffffffffff168152602001908152602001600020600082825461102a91906117d6565b925050819055508273ffffffffffffffffffffffffffffffffffffffff168473ffffffffffffffffffffffffffffffffffffffff167fddf252ad1be2c89b69c2b068fc378daa952ba7f163c4a11628f55a4df523b3ef8460405161108e9190611784565b60405180910390a36110a18484846112b7565b50505050565b6110af6105f6565b6110ee576040517f08c379a00000000000000000000000000000000000000000000000000000000081526004016110e590611644565b60405180910390fd5b6000600560146101000a81548160ff0219169083151502179055507f5db9ee0a495bf2e6ff9c91a7834c1ba4fdd244a5e8aa4e537bd38aeae4b073aa611132610bc7565b60405161113f91906115cc565b60405180910390a1565b6000600560009054906101000a900473ffffffffffffffffffffffffffffffffffffffff16905081600560006101000a81548173ffffffffffffffffffffffffffffffffffffffff021916908373ffffffffffffffffffffffffffffffffffffffff1602179055508173ffffffffffffffffffffffffffffffffffffffff168173ffffffffffffffffffffffffffffffffffffffff167f8be0079c531659141344cd1fd0a4f28419497f9722a3daafe3b4186f6b6457e060405160405180910390a35050565b6112176105f6565b15611257576040517f08c379a000000000000000000000000000000000000000000000000000000000815260040161124e906116e4565b60405180910390fd5b6001600560146101000a81548160ff0219169083151502179055507f62e78cea01bee320cd4e420270b5ea74000d11b0c9f74754ebdbfc544b05a25861129b610bc7565b6040516112a891906115cc565b60405180910390a1565b505050565b505050565b6000813590506112cb81611c22565b92915050565b6000813590506112e081611c39565b92915050565b6000602082840312156112f857600080fd5b6000611306848285016112bc565b91505092915050565b6000806040838503121561132257600080fd5b6000611330858286016112bc565b9250506020611341858286016112bc565b9150509250929050565b60008060006060848603121561136057600080fd5b600061136e868287016112bc565b935050602061137f868287016112bc565b9250506040611390868287016112d1565b9150509250925092565b600080604083850312156113ad57600080fd5b60006113bb858286016112bc565b92505060206113cc858286016112d1565b9150509250929050565b6113df8161182c565b82525050565b6113ee8161183e565b82525050565b60006113ff826117ba565b61140981856117c5565b9350611419818560208601611881565b61142281611944565b840191505092915050565b600061143a6023836117c5565b915061144582611955565b604082019050919050565b600061145d6014836117c5565b9150611468826119a4565b602082019050919050565b60006114806026836117c5565b915061148b826119cd565b604082019050919050565b60006114a36022836117c5565b91506114ae82611a1c565b604082019050919050565b60006114c6601d836117c5565b91506114d182611a6b565b602082019050919050565b60006114e96026836117c5565b91506114f482611a94565b604082019050919050565b600061150c6010836117c5565b915061151782611ae3565b602082019050919050565b600061152f6020836117c5565b915061153a82611b0c565b602082019050919050565b60006115526025836117c5565b915061155d82611b35565b604082019050919050565b60006115756024836117c5565b915061158082611b84565b604082019050919050565b60006115986025836117c5565b91506115a382611bd3565b604082019050919050565b6115b78161186a565b82525050565b6115c681611874565b82525050565b60006020820190506115e160008301846113d6565b92915050565b60006020820190506115fc60008301846113e5565b92915050565b6000602082019050818103600083015261161c81846113f4565b905092915050565b6000602082019050818103600083015261163d8161142d565b9050919050565b6000602082019050818103600083015261165d81611450565b9050919050565b6000602082019050818103600083015261167d81611473565b9050919050565b6000602082019050818103600083015261169d81611496565b9050919050565b600060208201905081810360008301526116bd816114b9565b9050919050565b600060208201905081810360008301526116dd816114dc565b9050919050565b600060208201905081810360008301526116fd816114ff565b9050919050565b6000602082019050818103600083015261171d81611522565b9050919050565b6000602082019050818103600083015261173d81611545565b9050919050565b6000602082019050818103600083015261175d81611568565b9050919050565b6000602082019050818103600083015261177d8161158b565b9050919050565b600060208201905061179960008301846115ae565b92915050565b60006020820190506117b460008301846115bd565b92915050565b600081519050919050565b600082825260208201905092915050565b60006117e18261186a565b91506117ec8361186a565b9250827fffffffffffffffffffffffffffffffffffffffffffffffffffffffffffffffff03821115611821576118206118e6565b5b828201905092915050565b60006118378261184a565b9050919050565b60008115159050919050565b600073ffffffffffffffffffffffffffffffffffffffff82169050919050565b6000819050919050565b600060ff82169050919050565b60005b8381101561189f578082015181840152602081019050611884565b838111156118ae576000848401525b50505050565b600060028204905060018216806118cc57607f821691505b602082108114156118e0576118df611915565b5b50919050565b7f4e487b7100000000000000000000000000000000000000000000000000000000600052601160045260246000fd5b7f4e487b7100000000000000000000000000000000000000000000000000000000600052602260045260246000fd5b6000601f19601f8301169050919050565b7f45524332303a207472616e7366657220746f20746865207a65726f206164647260008201527f6573730000000000000000000000000000000000000000000000000000000000602082015250565b7f5061757361626c653a206e6f7420706175736564000000000000000000000000600082015250565b7f4f776e61626c653a206e6577206f776e657220697320746865207a65726f206160008201527f6464726573730000000000000000000000000000000000000000000000000000602082015250565b7f45524332303a20617070726f766520746f20746865207a65726f20616464726560008201527f7373000000000000000000000000000000000000000000000000000000000000602082015250565b7f45524332303a20696e73756666696369656e7420616c6c6f77616e6365000000600082015250565b7f45524332303a207472616e7366657220616d6f756e742065786365656473206260008201527f616c616e63650000000000000000000000000000000000000000000000000000602082015250565b7f5061757361626c653a2070617573656400000000000000000000000000000000600082015250565b7f4f776e61626c653a2063616c6c6572206973206e6f7420746865206f776e6572600082015250565b7f45524332303a207472616e736665722066726f6d20746865207a65726f20616460008201527f6472657373000000000000000000000000000000000000000000000000000000602082015250565b7f45524332303a20617070726f76652066726f6d20746865207a65726f2061646460008201527f7265737300000000000000000000000000000000000000000000000000000000602082015250565b7f45524332303a2064656372656173656420616c6c6f77616e63652062656c6f7760008201527f207a65726f000000000000000000000000000000000000000000000000000000602082015250565b611c2b8161182c565b8114611c3657600080fd5b50565b611c428161186a565b8114611c4d57600080fd5b5056fea264697066735822122015289f06cfa0040fee73bbcef18555643fd346aedfc028b98b9976e13ca9cd6764736f6c63430008010033",
  "immutableReferences": {},
  "source": "// SPDX-License-Identifier: MIT\npragma solidity >=0.4.22 <0.9.0;\n\nimport \"../node_modules/openzeppelin-solidity/contracts/token/ERC20/ERC20.sol\";\nimport \"../node_modules/openzeppelin-solidity/contracts/access/Ownable.sol\";\nimport \"../node_modules/openzeppelin-solidity/contracts/security/Pausable.sol\";\n\ncontract MimiToken is ERC20, Ownable, Pausable {\n    string public _name = \"MIMI TOKEN\";\n    string public _symbol = \"MIMI\";\n    // uint256 public _decimals = 18;      .\n    uint256 public _totalSupply = 1000 * (10**uint256(decimals())); //.\n    string _text = \"hello world!\";\n\n    //_   ERC20.sol     \n    constructor() ERC20(_name, _symbol) {\n        _mint(msg.sender, _totalSupply);\n        //  \n    }\n\n    function pause() public onlyOwner {\n        _pause();\n    }\n\n    function unpause() public onlyOwner {\n        _unpause();\n    }\n}\n",
  "sourcePath": "C:\\Users\\LeeSeongHyun\\Desktop\\VSCODE\\openzeppelin\\contracts\\MimiToken.sol",
  "compiler": {
    "name": "solc",
    "version": "0.8.1+commit.df193b15.Emscripten.clang"
  },
  "schemaVersion": "3.4.4",
  "updatedAt": "2022-02-17T03:14:13.371Z",
  "networkType": "ethereum",
  "devdoc": {
    "kind": "dev",
    "methods": {
      "allowance(address,address)": {
        "details": "See {IERC20-allowance}."
      },
      "approve(address,uint256)": {
        "details": "See {IERC20-approve}. NOTE: If `amount` is the maximum `uint256`, the allowance is not updated on `transferFrom`. This is semantically equivalent to an infinite approval. Requirements: - `spender` cannot be the zero address."
      },
      "balanceOf(address)": {
        "details": "See {IERC20-balanceOf}."
      },
      "decimals()": {
        "details": "Returns the number of decimals used to get its user representation. For example, if `decimals` equals `2`, a balance of `505` tokens should be displayed to a user as `5.05` (`505 / 10 ** 2`). Tokens usually opt for a value of 18, imitating the relationship between Ether and Wei. This is the value {ERC20} uses, unless this function is overridden; NOTE: This information is only used for _display_ purposes: it in no way affects any of the arithmetic of the contract, including {IERC20-balanceOf} and {IERC20-transfer}."
      },
      "decreaseAllowance(address,uint256)": {
        "details": "Atomically decreases the allowance granted to `spender` by the caller. This is an alternative to {approve} that can be used as a mitigation for problems described in {IERC20-approve}. Emits an {Approval} event indicating the updated allowance. Requirements: - `spender` cannot be the zero address. - `spender` must have allowance for the caller of at least `subtractedValue`."
      },
      "increaseAllowance(address,uint256)": {
        "details": "Atomically increases the allowance granted to `spender` by the caller. This is an alternative to {approve} that can be used as a mitigation for problems described in {IERC20-approve}. Emits an {Approval} event indicating the updated allowance. Requirements: - `spender` cannot be the zero address."
      },
      "name()": {
        "details": "Returns the name of the token."
      },
      "owner()": {
        "details": "Returns the address of the current owner."
      },
      "paused()": {
        "details": "Returns true if the contract is paused, and false otherwise."
      },
      "renounceOwnership()": {
        "details": "Leaves the contract without owner. It will not be possible to call `onlyOwner` functions anymore. Can only be called by the current owner. NOTE: Renouncing ownership will leave the contract without an owner, thereby removing any functionality that is only available to the owner."
      },
      "symbol()": {
        "details": "Returns the symbol of the token, usually a shorter version of the name."
      },
      "totalSupply()": {
        "details": "See {IERC20-totalSupply}."
      },
      "transfer(address,uint256)": {
        "details": "See {IERC20-transfer}. Requirements: - `to` cannot be the zero address. - the caller must have a balance of at least `amount`."
      },
      "transferFrom(address,address,uint256)": {
        "details": "See {IERC20-transferFrom}. Emits an {Approval} event indicating the updated allowance. This is not required by the EIP. See the note at the beginning of {ERC20}. NOTE: Does not update the allowance if the current allowance is the maximum `uint256`. Requirements: - `from` and `to` cannot be the zero address. - `from` must have a balance of at least `amount`. - the caller must have allowance for ``from``'s tokens of at least `amount`."
      },
      "transferOwnership(address)": {
        "details": "Transfers ownership of the contract to a new account (`newOwner`). Can only be called by the current owner."
      }
    },
    "version": 1
  },
  "userdoc": {
    "kind": "user",
    "methods": {},
    "version": 1
  }
}